{
  "contractName": "CourseEnrollment",
  "abi": [
    {
      "inputs": [
        {
          "internalType": "string",
          "name": "",
          "type": "string"
        }
      ],
      "name": "courses",
      "outputs": [
        {
          "internalType": "string",
          "name": "name",
          "type": "string"
        },
        {
          "internalType": "uint256",
          "name": "availableSeats",
          "type": "uint256"
        },
        {
          "internalType": "bool",
          "name": "isActive",
          "type": "bool"
        }
      ],
      "stateMutability": "view",
      "type": "function",
      "constant": true
    },
    {
      "inputs": [
        {
          "internalType": "address",
          "name": "",
          "type": "address"
        },
        {
          "internalType": "string",
          "name": "",
          "type": "string"
        }
      ],
      "name": "enrollmentStatus",
      "outputs": [
        {
          "internalType": "bool",
          "name": "",
          "type": "bool"
        }
      ],
      "stateMutability": "view",
      "type": "function",
      "constant": true
    },
    {
      "inputs": [
        {
          "internalType": "address",
          "name": "",
          "type": "address"
        }
      ],
      "name": "students",
      "outputs": [
        {
          "internalType": "bool",
          "name": "exists",
          "type": "bool"
        }
      ],
      "stateMutability": "view",
      "type": "function",
      "constant": true
    },
    {
      "inputs": [
        {
          "internalType": "string",
          "name": "_name",
          "type": "string"
        },
        {
          "internalType": "uint256",
          "name": "_availableSeats",
          "type": "uint256"
        },
        {
          "internalType": "string[]",
          "name": "_prerequisites",
          "type": "string[]"
        }
      ],
      "name": "addCourse",
      "outputs": [],
      "stateMutability": "nonpayable",
      "type": "function"
    },
    {
      "inputs": [
        {
          "internalType": "address",
          "name": "_student",
          "type": "address"
        },
        {
          "internalType": "string",
          "name": "_courseName",
          "type": "string"
        }
      ],
      "name": "hasCompletedPrerequisites",
      "outputs": [
        {
          "internalType": "bool",
          "name": "",
          "type": "bool"
        }
      ],
      "stateMutability": "view",
      "type": "function",
      "constant": true
    },
    {
      "inputs": [
        {
          "internalType": "string",
          "name": "_courseName",
          "type": "string"
        }
      ],
      "name": "enroll",
      "outputs": [],
      "stateMutability": "nonpayable",
      "type": "function"
    },
    {
      "inputs": [
        {
          "internalType": "address",
          "name": "_student",
          "type": "address"
        },
        {
          "internalType": "string",
          "name": "_courseName",
          "type": "string"
        }
      ],
      "name": "completeCourse",
      "outputs": [],
      "stateMutability": "nonpayable",
      "type": "function"
    },
    {
      "inputs": [
        {
          "internalType": "string",
          "name": "_courseName",
          "type": "string"
        }
      ],
      "name": "getCourseDetails",
      "outputs": [
        {
          "internalType": "string",
          "name": "name",
          "type": "string"
        },
        {
          "internalType": "uint256",
          "name": "availableSeats",
          "type": "uint256"
        },
        {
          "internalType": "string[]",
          "name": "prerequisites",
          "type": "string[]"
        },
        {
          "internalType": "bool",
          "name": "isActive",
          "type": "bool"
        }
      ],
      "stateMutability": "view",
      "type": "function",
      "constant": true
    }
  ],
  "bytecode": "0x608060405234801561001057600080fd5b50611a1c806100206000396000f3fe608060405234801561001057600080fd5b50600436106100885760003560e01c806376ce0ab21161005b57806376ce0ab21461013e578063867963fa1461015a578063a6c807a91461018a578063ced47d0a146101ba57610088565b806353f5c1851461008d5780635d1c6dce146100c057806367b09cdb146100f257806374c75e1b1461010e575b600080fd5b6100a760048036038101906100a291906110ca565b6101d6565b6040516100b7949392919061155c565b60405180910390f35b6100da60048036038101906100d591906110ca565b6103be565b6040516100e9939291906115af565b60405180910390f35b61010c600480360381019061010791906110ca565b610493565b005b61012860048036038101906101239190611076565b6107e0565b6040516101359190611541565b60405180910390f35b61015860048036038101906101539190611076565b610a69565b005b610174600480360381019061016f9190611076565b610c40565b6040516101819190611541565b60405180910390f35b6101a4600480360381019061019f919061104d565b610c85565b6040516101b19190611541565b60405180910390f35b6101d460048036038101906101cf919061110b565b610cb0565b005b6060600060606000806000866040516101ef919061152a565b90815260200160405180910390206040518060800160405290816000820180546102189061189f565b80601f01602080910402602001604051908101604052809291908181526020018280546102449061189f565b80156102915780601f1061026657610100808354040283529160200191610291565b820191906000526020600020905b81548152906001019060200180831161027457829003601f168201915b505050505081526020016001820154815260200160028201805480602002602001604051908101604052809291908181526020016000905b828210156103755783829060005260206000200180546102e89061189f565b80601f01602080910402602001604051908101604052809291908181526020018280546103149061189f565b80156103615780601f1061033657610100808354040283529160200191610361565b820191906000526020600020905b81548152906001019060200180831161034457829003601f168201915b5050505050815260200190600101906102c9565b5050505081526020016003820160009054906101000a900460ff161515151581525050905080600001518160200151826040015183606001519450945094509450509193509193565b6000818051602081018201805184825260208301602085012081835280955050505050506000915090508060000180546103f79061189f565b80601f01602080910402602001604051908101604052809291908181526020018280546104239061189f565b80156104705780601f1061044557610100808354040283529160200191610470565b820191906000526020600020905b81548152906001019060200180831161045357829003601f168201915b5050505050908060010154908060030160009054906101000a900460ff16905083565b806003816040516104a4919061152a565b908152602001604051809103902060009054906101000a900460ff1615610500576040517f08c379a00000000000000000000000000000000000000000000000000000000081526004016104f79061162d565b60405180910390fd5b6001600382604051610512919061152a565b908152602001604051809103902060006101000a81548160ff021916908315150217905550600082604051610547919061152a565b908152602001604051809103902060030160009054906101000a900460ff166105a5576040517f08c379a000000000000000000000000000000000000000000000000000000000815260040161059c9061168d565b60405180910390fd5b600080836040516105b6919061152a565b90815260200160405180910390206001015411610608576040517f08c379a00000000000000000000000000000000000000000000000000000000081526004016105ff9061160d565b60405180910390fd5b600260003373ffffffffffffffffffffffffffffffffffffffff1673ffffffffffffffffffffffffffffffffffffffff16815260200190815260200160002082604051610655919061152a565b908152602001604051809103902060009054906101000a900460ff16156106b1576040517f08c379a00000000000000000000000000000000000000000000000000000000081526004016106a8906115ed565b60405180910390fd5b6106bb33836107e0565b6106fa576040517f08c379a00000000000000000000000000000000000000000000000000000000081526004016106f1906116ad565b60405180910390fd5b6001600260003373ffffffffffffffffffffffffffffffffffffffff1673ffffffffffffffffffffffffffffffffffffffff16815260200190815260200160002083604051610749919061152a565b908152602001604051809103902060006101000a81548160ff02191690831515021790555060008260405161077e919061152a565b908152602001604051809103902060010160008154809291906107a090611875565b919050555060006003826040516107b7919061152a565b908152602001604051809103902060006101000a81548160ff0219169083151502179055505050565b6000806000836040516107f3919061152a565b9081526020016040518091039020600201805480602002602001604051908101604052809291908181526020016000905b828210156108d05783829060005260206000200180546108439061189f565b80601f016020809104026020016040519081016040528092919081815260200182805461086f9061189f565b80156108bc5780601f10610891576101008083540402835291602001916108bc565b820191906000526020600020905b81548152906001019060200180831161089f57829003601f168201915b505050505081526020019060010190610824565b50505050905060005b8151811015610a5c576000805b600160008873ffffffffffffffffffffffffffffffffffffffff1673ffffffffffffffffffffffffffffffffffffffff16815260200190815260200160002060010180549050811015610a3657600160008873ffffffffffffffffffffffffffffffffffffffff1673ffffffffffffffffffffffffffffffffffffffff16815260200190815260200160002060010181815481106109ad577f4e487b7100000000000000000000000000000000000000000000000000000000600052603260045260246000fd5b906000526020600020016040516109c49190611513565b6040518091039020848481518110610a05577f4e487b7100000000000000000000000000000000000000000000000000000000600052603260045260246000fd5b6020026020010151805190602001201415610a235760019150610a36565b8080610a2e906118d1565b9150506108e6565b5080610a485760009350505050610a63565b508080610a54906118d1565b9150506108d9565b5060019150505b92915050565b600260008373ffffffffffffffffffffffffffffffffffffffff1673ffffffffffffffffffffffffffffffffffffffff16815260200190815260200160002081604051610ab6919061152a565b908152602001604051809103902060009054906101000a900460ff16610b11576040517f08c379a0000000000000000000000000000000000000000000000000000000008152600401610b089061164d565b60405180910390fd5b600160008373ffffffffffffffffffffffffffffffffffffffff1673ffffffffffffffffffffffffffffffffffffffff16815260200190815260200160002060000160009054906101000a900460ff16610bc05760018060008473ffffffffffffffffffffffffffffffffffffffff1673ffffffffffffffffffffffffffffffffffffffff16815260200190815260200160002060000160006101000a81548160ff0219169083151502179055505b600160008373ffffffffffffffffffffffffffffffffffffffff1673ffffffffffffffffffffffffffffffffffffffff16815260200190815260200160002060010181908060018154018082558091505060019003906000526020600020016000909190919091509080519060200190610c3b929190610dcd565b505050565b6002602052816000526040600020818051602081018201805184825260208301602085012081835280955050505050506000915091509054906101000a900460ff1681565b60016020528060005260406000206000915090508060000160009054906101000a900460ff16905081565b600083604051610cc0919061152a565b908152602001604051809103902060030160009054906101000a900460ff1615610d1f576040517f08c379a0000000000000000000000000000000000000000000000000000000008152600401610d169061166d565b60405180910390fd5b604051806080016040528084815260200183815260200182815260200160011515815250600084604051610d53919061152a565b90815260200160405180910390206000820151816000019080519060200190610d7d929190610dcd565b50602082015181600101556040820151816002019080519060200190610da4929190610e53565b5060608201518160030160006101000a81548160ff021916908315150217905550905050505050565b828054610dd99061189f565b90600052602060002090601f016020900481019282610dfb5760008555610e42565b82601f10610e1457805160ff1916838001178555610e42565b82800160010185558215610e42579182015b82811115610e41578251825591602001919060010190610e26565b5b509050610e4f9190610eb3565b5090565b828054828255906000526020600020908101928215610ea2579160200282015b82811115610ea1578251829080519060200190610e91929190610dcd565b5091602001919060010190610e73565b5b509050610eaf9190610ed0565b5090565b5b80821115610ecc576000816000905550600101610eb4565b5090565b5b80821115610ef05760008181610ee79190610ef4565b50600101610ed1565b5090565b508054610f009061189f565b6000825580601f10610f125750610f31565b601f016020900490600052602060002090810190610f309190610eb3565b5b50565b6000610f47610f42846116fe565b6116cd565b9050808382526020820190508260005b85811015610f875781358501610f6d888261100e565b845260208401935060208301925050600181019050610f57565b5050509392505050565b6000610fa4610f9f8461172a565b6116cd565b905082815260208101848484011115610fbc57600080fd5b610fc7848285611833565b509392505050565b600081359050610fde816119b8565b92915050565b600082601f830112610ff557600080fd5b8135611005848260208601610f34565b91505092915050565b600082601f83011261101f57600080fd5b813561102f848260208601610f91565b91505092915050565b600081359050611047816119cf565b92915050565b60006020828403121561105f57600080fd5b600061106d84828501610fcf565b91505092915050565b6000806040838503121561108957600080fd5b600061109785828601610fcf565b925050602083013567ffffffffffffffff8111156110b457600080fd5b6110c08582860161100e565b9150509250929050565b6000602082840312156110dc57600080fd5b600082013567ffffffffffffffff8111156110f657600080fd5b6111028482850161100e565b91505092915050565b60008060006060848603121561112057600080fd5b600084013567ffffffffffffffff81111561113a57600080fd5b6111468682870161100e565b935050602061115786828701611038565b925050604084013567ffffffffffffffff81111561117457600080fd5b61118086828701610fe4565b9150509250925092565b600061119683836112a1565b905092915050565b60006111a98261177f565b6111b381856117a2565b9350836020820285016111c58561175a565b8060005b8581101561120157848403895281516111e2858261118a565b94506111ed83611795565b925060208a019950506001810190506111c9565b50829750879550505050505092915050565b61121c816117fd565b82525050565b6000815461122f8161189f565b61123981866117b3565b94506001821660008114611254576001811461126557611298565b60ff19831686528186019350611298565b61126e8561176a565b60005b8381101561129057815481890152600182019150602081019050611271565b838801955050505b50505092915050565b60006112ac8261178a565b6112b681856117be565b93506112c6818560208601611842565b6112cf816119a7565b840191505092915050565b60006112e58261178a565b6112ef81856117cf565b93506112ff818560208601611842565b611308816119a7565b840191505092915050565b600061131e8261178a565b61132881856117e0565b9350611338818560208601611842565b80840191505092915050565b60006113516010836117cf565b91507f416c726561647920656e726f6c6c6564000000000000000000000000000000006000830152602082019050919050565b60006113916012836117cf565b91507f4e6f20736561747320617661696c61626c6500000000000000000000000000006000830152602082019050919050565b60006113d16017836117cf565b91507f5472616e73616374696f6e20696e2070726f67726573730000000000000000006000830152602082019050919050565b6000611411601b836117cf565b91507f4e6f7420656e726f6c6c656420696e207468697320636f7572736500000000006000830152602082019050919050565b60006114516015836117cf565b91507f436f7572736520616c72656164792065786973747300000000000000000000006000830152602082019050919050565b60006114916015836117cf565b91507f436f7572736520646f6573206e6f7420657869737400000000000000000000006000830152602082019050919050565b60006114d16015836117cf565b91507f50726572657175697369746573206e6f74206d657400000000000000000000006000830152602082019050919050565b61150d81611829565b82525050565b600061151f8284611222565b915081905092915050565b60006115368284611313565b915081905092915050565b60006020820190506115566000830184611213565b92915050565b6000608082019050818103600083015261157681876112da565b90506115856020830186611504565b8181036040830152611597818561119e565b90506115a66060830184611213565b95945050505050565b600060608201905081810360008301526115c981866112da565b90506115d86020830185611504565b6115e56040830184611213565b949350505050565b6000602082019050818103600083015261160681611344565b9050919050565b6000602082019050818103600083015261162681611384565b9050919050565b60006020820190508181036000830152611646816113c4565b9050919050565b6000602082019050818103600083015261166681611404565b9050919050565b6000602082019050818103600083015261168681611444565b9050919050565b600060208201905081810360008301526116a681611484565b9050919050565b600060208201905081810360008301526116c6816114c4565b9050919050565b6000604051905081810181811067ffffffffffffffff821117156116f4576116f3611978565b5b8060405250919050565b600067ffffffffffffffff82111561171957611718611978565b5b602082029050602081019050919050565b600067ffffffffffffffff82111561174557611744611978565b5b601f19601f8301169050602081019050919050565b6000819050602082019050919050565b60008190508160005260206000209050919050565b600081519050919050565b600081519050919050565b6000602082019050919050565b600082825260208201905092915050565b600081905092915050565b600082825260208201905092915050565b600082825260208201905092915050565b600081905092915050565b60006117f682611809565b9050919050565b60008115159050919050565b600073ffffffffffffffffffffffffffffffffffffffff82169050919050565b6000819050919050565b82818337600083830152505050565b60005b83811015611860578082015181840152602081019050611845565b8381111561186f576000848401525b50505050565b600061188082611829565b915060008214156118945761189361191a565b5b600182039050919050565b600060028204905060018216806118b757607f821691505b602082108114156118cb576118ca611949565b5b50919050565b60006118dc82611829565b91507fffffffffffffffffffffffffffffffffffffffffffffffffffffffffffffffff82141561190f5761190e61191a565b5b600182019050919050565b7f4e487b7100000000000000000000000000000000000000000000000000000000600052601160045260246000fd5b7f4e487b7100000000000000000000000000000000000000000000000000000000600052602260045260246000fd5b7f4e487b7100000000000000000000000000000000000000000000000000000000600052604160045260246000fd5b6000601f19601f8301169050919050565b6119c1816117eb565b81146119cc57600080fd5b50565b6119d881611829565b81146119e357600080fd5b5056fea26469706673582212204b8b0a780b0cb0af7b2bc00c2f5785f70776d5da0e5e4c7e4a7c106c4af3c18064736f6c63430008000033",
  "immutableReferences": {},
  "source": "// SPDX-License-Identifier: MIT\npragma solidity ^0.8.0;\n\ncontract CourseEnrollment {\n    struct Course {\n        string name;\n        uint availableSeats;\n        string[] prerequisites;\n        bool isActive;\n    }\n\n    struct Student {\n        bool exists;\n        string[] completedCourses;\n    }\n\n    mapping(string => Course) public courses;\n    mapping(address => Student) public students;\n    mapping(address => mapping(string => bool)) public enrollmentStatus;\n    \n    // Lock mechanism for race condition prevention\n    mapping(string => bool) private courseLocks;\n    \n    modifier noReentrancy(string memory _courseName) {\n        require(!courseLocks[_courseName], \"Transaction in progress\");\n        courseLocks[_courseName] = true;\n        _;\n        courseLocks[_courseName] = false;\n    }\n\n    function addCourse(\n        string memory _name,\n        uint _availableSeats,\n        string[] memory _prerequisites\n    ) public {\n        require(!courses[_name].isActive, \"Course already exists\");\n        courses[_name] = Course(_name, _availableSeats, _prerequisites, true);\n    }\n\n    function hasCompletedPrerequisites(\n        address _student, \n        string memory _courseName\n    ) public view returns (bool) {\n        string[] memory prerequisites = courses[_courseName].prerequisites;\n        \n        for(uint i = 0; i < prerequisites.length; i++) {\n            bool found = false;\n            for(uint j = 0; j < students[_student].completedCourses.length; j++) {\n                if (keccak256(bytes(prerequisites[i])) == keccak256(bytes(students[_student].completedCourses[j]))) {\n                    found = true;\n                    break;\n                }\n            }\n            if (!found) return false;\n        }\n        return true;\n    }\n\n    function enroll(string memory _courseName) public noReentrancy(_courseName) {\n        require(courses[_courseName].isActive, \"Course does not exist\");\n        require(courses[_courseName].availableSeats > 0, \"No seats available\");\n        require(!enrollmentStatus[msg.sender][_courseName], \"Already enrolled\");\n        require(hasCompletedPrerequisites(msg.sender, _courseName), \"Prerequisites not met\");\n\n        enrollmentStatus[msg.sender][_courseName] = true;\n        courses[_courseName].availableSeats--;\n    }\n\n    function completeCourse(address _student, string memory _courseName) public {\n        require(enrollmentStatus[_student][_courseName], \"Not enrolled in this course\");\n        if (!students[_student].exists) {\n            students[_student].exists = true;\n        }\n        students[_student].completedCourses.push(_courseName);\n    }\n\n    function getCourseDetails(string memory _courseName) \n        public \n        view \n        returns (\n            string memory name,\n            uint availableSeats,\n            string[] memory prerequisites,\n            bool isActive\n        ) \n    {\n        Course memory course = courses[_courseName];\n        return (\n            course.name,\n            course.availableSeats,\n            course.prerequisites,\n            course.isActive\n        );\n    }\n}\n",
  "sourcePath": "C:\\Users\\18265693\\Desktop\\group-blockchain\\contracts\\StudentEnrollment.sol",
  "compiler": {
    "name": "solc",
    "version": "0.8.0+commit.c7dfd78e.Emscripten.clang"
  },
  "schemaVersion": "3.4.16",
  "updatedAt": "2024-12-08T04:53:15.722Z",
  "networkType": "ethereum",
  "devdoc": {
    "kind": "dev",
    "methods": {},
    "version": 1
  },
  "userdoc": {
    "kind": "user",
    "methods": {},
    "version": 1
  }
}