{
  "contractName": "StudentEnrollment",
  "abi": [
    {
      "anonymous": false,
      "inputs": [
        {
          "indexed": false,
          "internalType": "string",
          "name": "reason",
          "type": "string"
        }
      ],
      "name": "CourseAddError",
      "type": "event"
    },
    {
      "anonymous": false,
      "inputs": [
        {
          "indexed": false,
          "internalType": "string",
          "name": "name",
          "type": "string"
        },
        {
          "indexed": false,
          "internalType": "uint256",
          "name": "seats",
          "type": "uint256"
        },
        {
          "indexed": false,
          "internalType": "string[]",
          "name": "prerequisites",
          "type": "string[]"
        }
      ],
      "name": "CourseAdded",
      "type": "event"
    },
    {
      "inputs": [
        {
          "internalType": "string",
          "name": "",
          "type": "string"
        }
      ],
      "name": "courses",
      "outputs": [
        {
          "internalType": "string",
          "name": "name",
          "type": "string"
        },
        {
          "internalType": "uint256",
          "name": "availableSeats",
          "type": "uint256"
        },
        {
          "internalType": "bool",
          "name": "isActive",
          "type": "bool"
        }
      ],
      "stateMutability": "view",
      "type": "function",
      "constant": true
    },
    {
      "inputs": [
        {
          "internalType": "address",
          "name": "",
          "type": "address"
        },
        {
          "internalType": "string",
          "name": "",
          "type": "string"
        }
      ],
      "name": "enrollmentStatus",
      "outputs": [
        {
          "internalType": "bool",
          "name": "",
          "type": "bool"
        }
      ],
      "stateMutability": "view",
      "type": "function",
      "constant": true
    },
    {
      "inputs": [
        {
          "internalType": "address",
          "name": "",
          "type": "address"
        }
      ],
      "name": "students",
      "outputs": [
        {
          "internalType": "bool",
          "name": "exists",
          "type": "bool"
        }
      ],
      "stateMutability": "view",
      "type": "function",
      "constant": true
    },
    {
      "inputs": [
        {
          "internalType": "string",
          "name": "_name",
          "type": "string"
        },
        {
          "internalType": "uint256",
          "name": "_availableSeats",
          "type": "uint256"
        },
        {
          "internalType": "string[]",
          "name": "_prerequisites",
          "type": "string[]"
        }
      ],
      "name": "addCourse",
      "outputs": [],
      "stateMutability": "nonpayable",
      "type": "function"
    },
    {
      "inputs": [
        {
          "internalType": "address",
          "name": "_student",
          "type": "address"
        },
        {
          "internalType": "string",
          "name": "_courseName",
          "type": "string"
        }
      ],
      "name": "hasCompletedPrerequisites",
      "outputs": [
        {
          "internalType": "bool",
          "name": "",
          "type": "bool"
        }
      ],
      "stateMutability": "view",
      "type": "function",
      "constant": true
    },
    {
      "inputs": [
        {
          "internalType": "string",
          "name": "_courseName",
          "type": "string"
        }
      ],
      "name": "enroll",
      "outputs": [],
      "stateMutability": "nonpayable",
      "type": "function"
    },
    {
      "inputs": [
        {
          "internalType": "address",
          "name": "_student",
          "type": "address"
        },
        {
          "internalType": "string",
          "name": "_courseName",
          "type": "string"
        }
      ],
      "name": "completeCourse",
      "outputs": [],
      "stateMutability": "nonpayable",
      "type": "function"
    },
    {
      "inputs": [
        {
          "internalType": "string",
          "name": "_courseName",
          "type": "string"
        }
      ],
      "name": "getCourseDetails",
      "outputs": [
        {
          "internalType": "string",
          "name": "name",
          "type": "string"
        },
        {
          "internalType": "uint256",
          "name": "availableSeats",
          "type": "uint256"
        },
        {
          "internalType": "string[]",
          "name": "prerequisites",
          "type": "string[]"
        },
        {
          "internalType": "bool",
          "name": "isActive",
          "type": "bool"
        }
      ],
      "stateMutability": "view",
      "type": "function",
      "constant": true
    },
    {
      "inputs": [],
      "name": "getAllCourses",
      "outputs": [
        {
          "internalType": "string[]",
          "name": "names",
          "type": "string[]"
        },
        {
          "internalType": "uint256[]",
          "name": "seats",
          "type": "uint256[]"
        },
        {
          "internalType": "string[][]",
          "name": "prereqs",
          "type": "string[][]"
        },
        {
          "internalType": "bool[]",
          "name": "active",
          "type": "bool[]"
        }
      ],
      "stateMutability": "view",
      "type": "function",
      "constant": true
    }
  ],
  "bytecode": "0x608060405234801561001057600080fd5b506124c3806100206000396000f3fe608060405234801561001057600080fd5b50600436106100935760003560e01c806374c75e1b1161006657806374c75e1b1461013a57806376ce0ab21461016a578063867963fa14610186578063a6c807a9146101b6578063ced47d0a146101e657610093565b806304e48bd11461009857806353f5c185146100b95780635d1c6dce146100ec57806367b09cdb1461011e575b600080fd5b6100a0610202565b6040516100b09493929190611e71565b60405180910390f35b6100d360048036038101906100ce919061175c565b6107f1565b6040516100e39493929190611f32565b60405180910390f35b6101066004803603810190610101919061175c565b6109d9565b60405161011593929190611f85565b60405180910390f35b6101386004803603810190610133919061175c565b610aae565b005b610154600480360381019061014f9190611708565b610dfb565b6040516101619190611ed2565b60405180910390f35b610184600480360381019061017f9190611708565b611084565b005b6101a0600480360381019061019b9190611708565b61125b565b6040516101ad9190611ed2565b60405180910390f35b6101d060048036038101906101cb91906116df565b6112a0565b6040516101dd9190611ed2565b60405180910390f35b61020060048036038101906101fb919061179d565b6112cb565b005b6060806060806000805b6004805490508110156102b257600060048281548110610255577f4e487b7100000000000000000000000000000000000000000000000000000000600052603260045260246000fd5b9060005260206000200160405161026c9190611e5a565b908152602001604051809103902060030160009054906101000a900460ff161561029f57818061029b90612378565b9250505b80806102aa90612378565b91505061020c565b508067ffffffffffffffff8111156102f3577f4e487b7100000000000000000000000000000000000000000000000000000000600052604160045260246000fd5b60405190808252806020026020018201604052801561032657816020015b60608152602001906001900390816103115790505b5094508067ffffffffffffffff811115610369577f4e487b7100000000000000000000000000000000000000000000000000000000600052604160045260246000fd5b6040519080825280602002602001820160405280156103975781602001602082028036833780820191505090505b5093508067ffffffffffffffff8111156103da577f4e487b7100000000000000000000000000000000000000000000000000000000600052604160045260246000fd5b60405190808252806020026020018201604052801561040d57816020015b60608152602001906001900390816103f85790505b5092508067ffffffffffffffff811115610450577f4e487b7100000000000000000000000000000000000000000000000000000000600052604160045260246000fd5b60405190808252806020026020018201604052801561047e5781602001602082028036833780820191505090505b5091506000805b6004805490508110156107e8576000600482815481106104ce577f4e487b7100000000000000000000000000000000000000000000000000000000600052603260045260246000fd5b9060005260206000200180546104e390612346565b80601f016020809104026020016040519081016040528092919081815260200182805461050f90612346565b801561055c5780601f106105315761010080835404028352916020019161055c565b820191906000526020600020905b81548152906001019060200180831161053f57829003601f168201915b505050505090506000816040516105739190611e43565b908152602001604051809103902060030160009054906101000a900460ff16156107d457808884815181106105d1577f4e487b7100000000000000000000000000000000000000000000000000000000600052603260045260246000fd5b60200260200101819052506000816040516105ec9190611e43565b908152602001604051809103902060010154878481518110610637577f4e487b7100000000000000000000000000000000000000000000000000000000600052603260045260246000fd5b6020026020010181815250506000816040516106539190611e43565b9081526020016040518091039020600201805480602002602001604051908101604052809291908181526020016000905b828210156107305783829060005260206000200180546106a390612346565b80601f01602080910402602001604051908101604052809291908181526020018280546106cf90612346565b801561071c5780601f106106f15761010080835404028352916020019161071c565b820191906000526020600020905b8154815290600101906020018083116106ff57829003601f168201915b505050505081526020019060010190610684565b5050505086848151811061076d577f4e487b7100000000000000000000000000000000000000000000000000000000600052603260045260246000fd5b602002602001018190525060018584815181106107b3577f4e487b7100000000000000000000000000000000000000000000000000000000600052603260045260246000fd5b60200260200101901515908115158152505082806107d090612378565b9350505b5080806107e090612378565b915050610485565b50505090919293565b60606000606060008060008660405161080a9190611e43565b908152602001604051809103902060405180608001604052908160008201805461083390612346565b80601f016020809104026020016040519081016040528092919081815260200182805461085f90612346565b80156108ac5780601f10610881576101008083540402835291602001916108ac565b820191906000526020600020905b81548152906001019060200180831161088f57829003601f168201915b505050505081526020016001820154815260200160028201805480602002602001604051908101604052809291908181526020016000905b8282101561099057838290600052602060002001805461090390612346565b80601f016020809104026020016040519081016040528092919081815260200182805461092f90612346565b801561097c5780601f106109515761010080835404028352916020019161097c565b820191906000526020600020905b81548152906001019060200180831161095f57829003601f168201915b5050505050815260200190600101906108e4565b5050505081526020016003820160009054906101000a900460ff161515151581525050905080600001518160200151826040015183606001519450945094509450509193509193565b600081805160208101820180518482526020830160208501208183528095505050505050600091509050806000018054610a1290612346565b80601f0160208091040260200160405190810160405280929190818152602001828054610a3e90612346565b8015610a8b5780601f10610a6057610100808354040283529160200191610a8b565b820191906000526020600020905b815481529060010190602001808311610a6e57829003601f168201915b5050505050908060010154908060030160009054906101000a900460ff16905083565b80600381604051610abf9190611e43565b908152602001604051809103902060009054906101000a900460ff1615610b1b576040517f08c379a0000000000000000000000000000000000000000000000000000000008152600401610b1290612003565b60405180910390fd5b6001600382604051610b2d9190611e43565b908152602001604051809103902060006101000a81548160ff021916908315150217905550600082604051610b629190611e43565b908152602001604051809103902060030160009054906101000a900460ff16610bc0576040517f08c379a0000000000000000000000000000000000000000000000000000000008152600401610bb790612063565b60405180910390fd5b60008083604051610bd19190611e43565b90815260200160405180910390206001015411610c23576040517f08c379a0000000000000000000000000000000000000000000000000000000008152600401610c1a90611fe3565b60405180910390fd5b600260003373ffffffffffffffffffffffffffffffffffffffff1673ffffffffffffffffffffffffffffffffffffffff16815260200190815260200160002082604051610c709190611e43565b908152602001604051809103902060009054906101000a900460ff1615610ccc576040517f08c379a0000000000000000000000000000000000000000000000000000000008152600401610cc390611fc3565b60405180910390fd5b610cd63383610dfb565b610d15576040517f08c379a0000000000000000000000000000000000000000000000000000000008152600401610d0c90612083565b60405180910390fd5b6001600260003373ffffffffffffffffffffffffffffffffffffffff1673ffffffffffffffffffffffffffffffffffffffff16815260200190815260200160002083604051610d649190611e43565b908152602001604051809103902060006101000a81548160ff021916908315150217905550600082604051610d999190611e43565b90815260200160405180910390206001016000815480929190610dbb9061231c565b91905055506000600382604051610dd29190611e43565b908152602001604051809103902060006101000a81548160ff0219169083151502179055505050565b600080600083604051610e0e9190611e43565b9081526020016040518091039020600201805480602002602001604051908101604052809291908181526020016000905b82821015610eeb578382906000526020600020018054610e5e90612346565b80601f0160208091040260200160405190810160405280929190818152602001828054610e8a90612346565b8015610ed75780601f10610eac57610100808354040283529160200191610ed7565b820191906000526020600020905b815481529060010190602001808311610eba57829003601f168201915b505050505081526020019060010190610e3f565b50505050905060005b600160008673ffffffffffffffffffffffffffffffffffffffff1673ffffffffffffffffffffffffffffffffffffffff16815260200190815260200160002060010180549050811015611077576000805b835181101561105157600160008873ffffffffffffffffffffffffffffffffffffffff1673ffffffffffffffffffffffffffffffffffffffff1681526020019081526020016000206001018381548110610fc8577f4e487b7100000000000000000000000000000000000000000000000000000000600052603260045260246000fd5b90600052602060002001604051610fdf9190611e2c565b6040518091039020848281518110611020577f4e487b7100000000000000000000000000000000000000000000000000000000600052603260045260246000fd5b602002602001015180519060200120141561103e5760019150611051565b808061104990612378565b915050610f45565b5080611063576000935050505061107e565b50808061106f90612378565b915050610ef4565b5060019150505b92915050565b600260008373ffffffffffffffffffffffffffffffffffffffff1673ffffffffffffffffffffffffffffffffffffffff168152602001908152602001600020816040516110d19190611e43565b908152602001604051809103902060009054906101000a900460ff1661112c576040517f08c379a000000000000000000000000000000000000000000000000000000000815260040161112390612023565b60405180910390fd5b600160008373ffffffffffffffffffffffffffffffffffffffff1673ffffffffffffffffffffffffffffffffffffffff16815260200190815260200160002060000160009054906101000a900460ff166111db5760018060008473ffffffffffffffffffffffffffffffffffffffff1673ffffffffffffffffffffffffffffffffffffffff16815260200190815260200160002060000160006101000a81548160ff0219169083151502179055505b600160008373ffffffffffffffffffffffffffffffffffffffff1673ffffffffffffffffffffffffffffffffffffffff1681526020019081526020016000206001018190806001815401808255809150506001900390600052602060002001600090919091909150908051906020019061125692919061145f565b505050565b6002602052816000526040600020818051602081018201805184825260208301602085012081835280955050505050506000915091509054906101000a900460ff1681565b60016020528060005260406000206000915090508060000160009054906101000a900460ff16905081565b6000836040516112db9190611e43565b908152602001604051809103902060030160009054906101000a900460ff161561133a576040517f08c379a000000000000000000000000000000000000000000000000000000000815260040161133190612043565b60405180910390fd5b60405180608001604052808481526020018381526020018281526020016001151581525060008460405161136e9190611e43565b9081526020016040518091039020600082015181600001908051906020019061139892919061145f565b506020820151816001015560408201518160020190805190602001906113bf9291906114e5565b5060608201518160030160006101000a81548160ff02191690831515021790555090505060048390806001815401808255809150506001900390600052602060002001600090919091909150908051906020019061141e92919061145f565b507ff6028c1bf3ecc04d6ac1a13a4821cf67eab1b9b718b146b56ea0aa81b0c8ddf383838360405161145293929190611eed565b60405180910390a1505050565b82805461146b90612346565b90600052602060002090601f01602090048101928261148d57600085556114d4565b82601f106114a657805160ff19168380011785556114d4565b828001600101855582156114d4579182015b828111156114d35782518255916020019190600101906114b8565b5b5090506114e19190611545565b5090565b828054828255906000526020600020908101928215611534579160200282015b8281111561153357825182908051906020019061152392919061145f565b5091602001919060010190611505565b5b5090506115419190611562565b5090565b5b8082111561155e576000816000905550600101611546565b5090565b5b8082111561158257600081816115799190611586565b50600101611563565b5090565b50805461159290612346565b6000825580601f106115a457506115c3565b601f0160209004906000526020600020908101906115c29190611545565b5b50565b60006115d96115d4846120d4565b6120a3565b9050808382526020820190508260005b8581101561161957813585016115ff88826116a0565b8452602084019350602083019250506001810190506115e9565b5050509392505050565b600061163661163184612100565b6120a3565b90508281526020810184848401111561164e57600080fd5b6116598482856122da565b509392505050565b6000813590506116708161245f565b92915050565b600082601f83011261168757600080fd5b81356116978482602086016115c6565b91505092915050565b600082601f8301126116b157600080fd5b81356116c1848260208601611623565b91505092915050565b6000813590506116d981612476565b92915050565b6000602082840312156116f157600080fd5b60006116ff84828501611661565b91505092915050565b6000806040838503121561171b57600080fd5b600061172985828601611661565b925050602083013567ffffffffffffffff81111561174657600080fd5b611752858286016116a0565b9150509250929050565b60006020828403121561176e57600080fd5b600082013567ffffffffffffffff81111561178857600080fd5b611794848285016116a0565b91505092915050565b6000806000606084860312156117b257600080fd5b600084013567ffffffffffffffff8111156117cc57600080fd5b6117d8868287016116a0565b93505060206117e9868287016116ca565b925050604084013567ffffffffffffffff81111561180657600080fd5b61181286828701611676565b9150509250925092565b60006118288383611947565b905092915050565b600061183c8383611a8f565b60208301905092915050565b60006118548383611b2c565b905092915050565b60006118688383611e0e565b60208301905092915050565b600061187f8261219a565b6118898185612205565b93508360208202850161189b85612130565b8060005b858110156118d757848403895281516118b8858261181c565b94506118c3836121d1565b925060208a0199505060018101905061189f565b50829750879550505050505092915050565b60006118f4826121a5565b6118fe8185612216565b935061190983612140565b8060005b8381101561193a5781516119218882611830565b975061192c836121de565b92505060018101905061190d565b5085935050505092915050565b6000611952826121b0565b61195c8185612227565b93508360208202850161196e85612150565b8060005b858110156119aa578484038952815161198b8582611848565b9450611996836121eb565b925060208a01995050600181019050611972565b50829750879550505050505092915050565b60006119c7826121b0565b6119d18185612238565b9350836020820285016119e385612150565b8060005b85811015611a1f5784840389528151611a008582611848565b9450611a0b836121eb565b925060208a019950506001810190506119e7565b50829750879550505050505092915050565b6000611a3c826121bb565b611a468185612249565b9350611a5183612160565b8060005b83811015611a82578151611a69888261185c565b9750611a74836121f8565b925050600181019050611a55565b5085935050505092915050565b611a98816122a4565b82525050565b611aa7816122a4565b82525050565b60008154611aba81612346565b611ac4818661225a565b94506001821660008114611adf5760018114611af057611b23565b60ff19831686528186019350611b23565b611af985612170565b60005b83811015611b1b57815481890152600182019150602081019050611afc565b838801955050505b50505092915050565b6000611b37826121c6565b611b418185612265565b9350611b518185602086016122e9565b611b5a8161244e565b840191505092915050565b6000611b70826121c6565b611b7a8185612276565b9350611b8a8185602086016122e9565b611b938161244e565b840191505092915050565b6000611ba9826121c6565b611bb38185612287565b9350611bc38185602086016122e9565b80840191505092915050565b60008154611bdc81612346565b611be68186612287565b94506001821660008114611c015760018114611c1257611c45565b60ff19831686528186019350611c45565b611c1b85612185565b60005b83811015611c3d57815481890152600182019150602081019050611c1e565b838801955050505b50505092915050565b6000611c5b601083612276565b91507f416c726561647920656e726f6c6c6564000000000000000000000000000000006000830152602082019050919050565b6000611c9b601283612276565b91507f4e6f20736561747320617661696c61626c6500000000000000000000000000006000830152602082019050919050565b6000611cdb601783612276565b91507f5472616e73616374696f6e20696e2070726f67726573730000000000000000006000830152602082019050919050565b6000611d1b601b83612276565b91507f4e6f7420656e726f6c6c656420696e207468697320636f7572736500000000006000830152602082019050919050565b6000611d5b601583612276565b91507f436f7572736520616c72656164792065786973747300000000000000000000006000830152602082019050919050565b6000611d9b601583612276565b91507f436f7572736520646f6573206e6f7420657869737400000000000000000000006000830152602082019050919050565b6000611ddb601583612276565b91507f50726572657175697369746573206e6f74206d657400000000000000000000006000830152602082019050919050565b611e17816122d0565b82525050565b611e26816122d0565b82525050565b6000611e388284611aad565b915081905092915050565b6000611e4f8284611b9e565b915081905092915050565b6000611e668284611bcf565b915081905092915050565b60006080820190508181036000830152611e8b81876119bc565b90508181036020830152611e9f8186611a31565b90508181036040830152611eb38185611874565b90508181036060830152611ec781846118e9565b905095945050505050565b6000602082019050611ee76000830184611a9e565b92915050565b60006060820190508181036000830152611f078186611b65565b9050611f166020830185611e1d565b8181036040830152611f2881846119bc565b9050949350505050565b60006080820190508181036000830152611f4c8187611b65565b9050611f5b6020830186611e1d565b8181036040830152611f6d81856119bc565b9050611f7c6060830184611a9e565b95945050505050565b60006060820190508181036000830152611f9f8186611b65565b9050611fae6020830185611e1d565b611fbb6040830184611a9e565b949350505050565b60006020820190508181036000830152611fdc81611c4e565b9050919050565b60006020820190508181036000830152611ffc81611c8e565b9050919050565b6000602082019050818103600083015261201c81611cce565b9050919050565b6000602082019050818103600083015261203c81611d0e565b9050919050565b6000602082019050818103600083015261205c81611d4e565b9050919050565b6000602082019050818103600083015261207c81611d8e565b9050919050565b6000602082019050818103600083015261209c81611dce565b9050919050565b6000604051905081810181811067ffffffffffffffff821117156120ca576120c961241f565b5b8060405250919050565b600067ffffffffffffffff8211156120ef576120ee61241f565b5b602082029050602081019050919050565b600067ffffffffffffffff82111561211b5761211a61241f565b5b601f19601f8301169050602081019050919050565b6000819050602082019050919050565b6000819050602082019050919050565b6000819050602082019050919050565b6000819050602082019050919050565b60008190508160005260206000209050919050565b60008190508160005260206000209050919050565b600081519050919050565b600081519050919050565b600081519050919050565b600081519050919050565b600081519050919050565b6000602082019050919050565b6000602082019050919050565b6000602082019050919050565b6000602082019050919050565b600082825260208201905092915050565b600082825260208201905092915050565b600082825260208201905092915050565b600082825260208201905092915050565b600082825260208201905092915050565b600081905092915050565b600082825260208201905092915050565b600082825260208201905092915050565b600081905092915050565b600061229d826122b0565b9050919050565b60008115159050919050565b600073ffffffffffffffffffffffffffffffffffffffff82169050919050565b6000819050919050565b82818337600083830152505050565b60005b838110156123075780820151818401526020810190506122ec565b83811115612316576000848401525b50505050565b6000612327826122d0565b9150600082141561233b5761233a6123c1565b5b600182039050919050565b6000600282049050600182168061235e57607f821691505b60208210811415612372576123716123f0565b5b50919050565b6000612383826122d0565b91507fffffffffffffffffffffffffffffffffffffffffffffffffffffffffffffffff8214156123b6576123b56123c1565b5b600182019050919050565b7f4e487b7100000000000000000000000000000000000000000000000000000000600052601160045260246000fd5b7f4e487b7100000000000000000000000000000000000000000000000000000000600052602260045260246000fd5b7f4e487b7100000000000000000000000000000000000000000000000000000000600052604160045260246000fd5b6000601f19601f8301169050919050565b61246881612292565b811461247357600080fd5b50565b61247f816122d0565b811461248a57600080fd5b5056fea264697066735822122082aac61d31baec8656e7ab0ab55e2dfb34c2b7681a88ad5558cacece6cb99e7164736f6c63430008000033",
  "immutableReferences": {},
  "source": "// SPDX-License-Identifier: MIT\npragma solidity ^0.8.0;\n\ncontract StudentEnrollment {\n    struct Course {\n        string name;\n        uint availableSeats;\n        string[] prerequisites;\n        bool isActive;\n    }\n\n    struct Student {\n        bool exists;\n        string[] completedCourses;\n    }\n\n    mapping(string => Course) public courses;\n    mapping(address => Student) public students;\n    mapping(address => mapping(string => bool)) public enrollmentStatus;\n    \n    // Lock mechanism for race condition prevention\n    mapping(string => bool) private courseLocks;\n    \n    modifier noReentrancy(string memory _courseName) {\n        require(!courseLocks[_courseName], \"Transaction in progress\");\n        courseLocks[_courseName] = true;\n        _;\n        courseLocks[_courseName] = false;\n    }\n\n    event CourseAdded(string name, uint seats, string[] prerequisites);\n    event CourseAddError(string reason);\n\n    // Add this at the top of the contract to track course names\n    string[] private courseNames;\n\n    function addCourse(\n        string memory _name,\n        uint _availableSeats,\n        string[] memory _prerequisites\n    ) public {\n        require(!courses[_name].isActive, \"Course already exists\");\n        \n        // Add course\n        courses[_name] = Course(_name, _availableSeats, _prerequisites, true);\n        courseNames.push(_name);\n        \n        // Debug event\n        emit CourseAdded(_name, _availableSeats, _prerequisites);\n    }\n\n    function hasCompletedPrerequisites(\n        address _student, \n        string memory _courseName\n    ) public view returns (bool) {\n        string[] memory prerequisites = courses[_courseName].prerequisites;\n        \n        for(uint i = 0; i < students[_student].completedCourses.length; i++) {\n            bool found = false;\n            for(uint j = 0; j < prerequisites.length; j++) {\n                if (keccak256(bytes(prerequisites[j])) == keccak256(bytes(students[_student].completedCourses[i]))) {\n                    found = true;\n                    break;\n                }\n            }\n            if (!found) return false;\n        }\n        return true;\n    }\n\n    function enroll(string memory _courseName) public noReentrancy(_courseName) {\n        require(courses[_courseName].isActive, \"Course does not exist\");\n        require(courses[_courseName].availableSeats > 0, \"No seats available\");\n        require(!enrollmentStatus[msg.sender][_courseName], \"Already enrolled\");\n        require(hasCompletedPrerequisites(msg.sender, _courseName), \"Prerequisites not met\");\n\n        enrollmentStatus[msg.sender][_courseName] = true;\n        courses[_courseName].availableSeats--;\n    }\n\n    function completeCourse(address _student, string memory _courseName) public {\n        require(enrollmentStatus[_student][_courseName], \"Not enrolled in this course\");\n        if (!students[_student].exists) {\n            students[_student].exists = true;\n        }\n        students[_student].completedCourses.push(_courseName);\n    }\n\n    function getCourseDetails(string memory _courseName) \n        public \n        view \n        returns (\n            string memory name,\n            uint availableSeats,\n            string[] memory prerequisites,\n            bool isActive\n        ) \n    {\n        Course memory course = courses[_courseName];\n        return (\n            course.name,\n            course.availableSeats,\n            course.prerequisites,\n            course.isActive\n        );\n    }\n\n    function getAllCourses() public view returns (\n        string[] memory names,\n        uint[] memory seats,\n        string[][] memory prereqs,\n        bool[] memory active\n    ) {\n        // First count active courses\n        uint count = 0;\n        for (uint i = 0; i < courseNames.length; i++) {\n            if (courses[courseNames[i]].isActive) {\n                count++;\n            }\n        }\n\n        // Initialize arrays with the correct size\n        names = new string[](count);\n        seats = new uint[](count);\n        prereqs = new string[][](count);\n        active = new bool[](count);\n\n        // Fill arrays\n        uint index = 0;\n        for (uint i = 0; i < courseNames.length; i++) {\n            string memory name = courseNames[i];\n            if (courses[name].isActive) {\n                names[index] = name;\n                seats[index] = courses[name].availableSeats;\n                prereqs[index] = courses[name].prerequisites;\n                active[index] = true;\n                index++;\n            }\n        }\n\n        return (names, seats, prereqs, active);\n    }\n}\n",
  "sourcePath": "C:\\Users\\18265693\\Desktop\\group-blockchain\\contracts\\StudentEnrollment.sol",
  "compiler": {
    "name": "solc",
    "version": "0.8.0+commit.c7dfd78e.Emscripten.clang"
  },
  "schemaVersion": "3.4.16",
  "updatedAt": "2024-12-08T07:57:17.710Z",
  "networkType": "ethereum",
  "devdoc": {
    "kind": "dev",
    "methods": {},
    "version": 1
  },
  "userdoc": {
    "kind": "user",
    "methods": {},
    "version": 1
  }
}